:100000000C9478000C9491000C9491000C94910045
:100010000C9491000C9491000C9491000C9491001C
:100020000C9491000C9491000C9491000C9491000C
:100030000C9491000C9491000C9491000C949100FC
:100040000C9491000C9491000C9491000C949100EC
:100050000C9491000C9491000C9491000C949100DC
:100060000C9491000C9491000C9491000C949100CC
:100070000C9491000C9491000C9491000C949100BC
:100080000C9491000C9491000C9491000C949100AC
:100090000C9491000C9491000C9491000C9491009C
:1000A0000C9491000C9491000C9491000C9491008C
:1000B0000C9491000C9491000C9491000C9491007C
:1000C0000C9491000C9491000C9491000C9491006C
:1000D0000C9491000C9491000C9491000C9491005C
:1000E0000C9491000C947D010C94DF000C94310170
:1000F00011241FBECFEFD1E2DEBFCDBF00E00CBFA9
:1001000012E0A0E0B2E0EEEDF4E000E00BBF02C0D0
:1001100007900D92A233B107D9F70E9477010C9492
:100120006D020C94000080E880937A008FEF80933A
:100130007E0080937D00089580E28093800080E2BD
:100140009EE49093870080938600E1E8F0E080E1F0
:100150008083808182608083269A089586509F4F95
:1001600090938B0080938A00089510927A00809378
:100170007C0090937B0080E880937A0080917A00E5
:10018000806480937A0080917A0086FDFCCF809114
:1001900078009091790008958FEF82B985B988B978
:1001A0008BB98EB981BB84BB809302018093080117
:1001B0000895ACE0B0E0EFEDF0E00C94320221E005
:1001C00030E041E065E270E0CE010A960E94E30172
:1001D00021E030E042E065E270E0CE0107960E9447
:1001E000E30130E020E043E065E270E0CE010496F8
:1001F0000E94E30121E030E040E065E270E0CE01E2
:1002000001960E94E301E981FA8180819B8121E0CE
:1002100030E001C0220F9A95EAF7822B808381E5B6
:100220008CBD2C96E2E00C944E028EBD0DB407FE00
:10023000FDCF8EB50895FC01DB019D91BD01992391
:1002400049F0A281B3818C9185FFFDCFA081B1815E
:100250009C93F2CF0895AAE0B0E0E1E3F1E00C94C2
:100260002A027C019B0191E080E0672B09F090E07D
:10027000E92FF82FC9010AE010E0009721F58E015F
:100280000F5F1F4F6801CE0EDF1E8AE0A82EB12C33
:1002900021153105F1F4B801CB01801B910B8E17AC
:1002A0009F070CF5DB012D91BD01D70112964D91F1
:1002B0005C91DA018C9185FFFCCFD7018D919C91E7
:1002C000DC012C93E9CFB8010E940E02CB013196DC
:1002D000D4CFC901B5010E940E02805DD6018E9374
:1002E0006D019B01D5CF2A96EAE00C944602AAE064
:1002F000B0E0EDE7F1E00C942A020E94CC008AE025
:10030000E0E0F2E0DE01119601900D928A95E1F7AE
:10031000E985FA8589E190E09183808388E1809383
:10032000C100EF81F88586E080838FEF8093040120
:100330000E9493000E949C0080E490E00E94B5001F
:100340005C0182E490E00E94B5006C0184E498E0D6
:100350000E94B5007C0186E498E00E94B5008C0103
:100360006AE072E0CE0101960E941B01B501CE0148
:1003700001960E942B0162E172E0CE0101960E947B
:100380001B01B601CE0101960E942B016CE172E0C7
:10039000CE0101960E941B01B701CE0101960E9479
:1003A0002B0165E272E0CE0101960E941B01B801AB
:1003B000CE0101960E942B016EE272E0CE01019601
:1003C0000E941B01B9CFDC0111967C936E931296AB
:1003D0004C931297E1E0F0E0CF0102C0880F991F23
:1003E0004A95E2F7AC01FB0131978081213031055C
:1003F00091F4482B4083ED91FC9111972081129646
:100400003C9181E090E001C0880F3A95EAF7809531
:1004100082238083089540954823ECCF97FB072ED5
:1004200016F4009407D077FD09D00E94590207FC0A
:1004300005D03EF4909581959F4F089570956195F4
:100440007F4F08952F923F924F925F926F927F92CB
:100450008F929F92AF92BF92CF92DF92EF92FF92D4
:100460000F931F93CF93DF93CDB7DEB7CA1BDB0B80
:100470000FB6F894DEBF0FBECDBF19942A88398815
:1004800048885F846E847D848C849B84AA84B9842C
:10049000C884DF80EE80FD800C811B81AA81B98138
:1004A000CE0FD11D0FB6F894DEBF0FBECDBFED014C
:1004B0000895AA1BBB1B51E107C0AA1FBB1FA617AB
:1004C000B70710F0A61BB70B881F991F5A95A9F7FD
:0E04D00080959095BC01CD010895F894FFCF62
:1004DE00C600C000C100C200C40041505053313AA2
:1004EE0020002C2041505053323A20002C205450E2
:1004FE0053313A20002C20545053323A20000D0A2A
:02050E000000EB
:00000001FF
